{
  "contractName": "Market",
  "abi": [
    {
      "inputs": [],
      "stateMutability": "nonpayable",
      "type": "constructor"
    },
    {
      "anonymous": false,
      "inputs": [
        {
          "indexed": false,
          "internalType": "address",
          "name": "owner",
          "type": "address"
        },
        {
          "indexed": true,
          "internalType": "string",
          "name": "propertyTitle",
          "type": "string"
        }
      ],
      "name": "propRegistered",
      "type": "event"
    },
    {
      "anonymous": false,
      "inputs": [
        {
          "indexed": false,
          "internalType": "address",
          "name": "new_owner",
          "type": "address"
        },
        {
          "indexed": true,
          "internalType": "string",
          "name": "propertyTitle",
          "type": "string"
        }
      ],
      "name": "propSold",
      "type": "event"
    },
    {
      "inputs": [
        {
          "internalType": "string",
          "name": "",
          "type": "string"
        }
      ],
      "name": "Properties",
      "outputs": [
        {
          "internalType": "address",
          "name": "owner",
          "type": "address"
        },
        {
          "internalType": "string",
          "name": "property_title",
          "type": "string"
        },
        {
          "internalType": "uint256",
          "name": "SoldnTimes",
          "type": "uint256"
        }
      ],
      "stateMutability": "view",
      "type": "function",
      "constant": true
    },
    {
      "inputs": [],
      "name": "admin",
      "outputs": [
        {
          "internalType": "address",
          "name": "",
          "type": "address"
        }
      ],
      "stateMutability": "view",
      "type": "function",
      "constant": true
    },
    {
      "inputs": [
        {
          "internalType": "address",
          "name": "_owner",
          "type": "address"
        },
        {
          "internalType": "string",
          "name": "prop_title",
          "type": "string"
        }
      ],
      "name": "registerProperty",
      "outputs": [],
      "stateMutability": "nonpayable",
      "type": "function"
    },
    {
      "inputs": [
        {
          "internalType": "string",
          "name": "prop_title",
          "type": "string"
        }
      ],
      "name": "BuyProperty",
      "outputs": [],
      "stateMutability": "payable",
      "type": "function",
      "payable": true
    },
    {
      "inputs": [
        {
          "internalType": "string",
          "name": "prop_title",
          "type": "string"
        }
      ],
      "name": "verifyPropExistance",
      "outputs": [
        {
          "internalType": "bool",
          "name": "",
          "type": "bool"
        }
      ],
      "stateMutability": "view",
      "type": "function",
      "constant": true
    },
    {
      "inputs": [
        {
          "internalType": "address",
          "name": "_owner",
          "type": "address"
        },
        {
          "internalType": "string",
          "name": "prop_title",
          "type": "string"
        }
      ],
      "name": "isOwnerOfProperty",
      "outputs": [
        {
          "internalType": "bool",
          "name": "",
          "type": "bool"
        }
      ],
      "stateMutability": "view",
      "type": "function",
      "constant": true
    }
  ],
  "bytecode": "0x6080604052600080546001600160a01b0319167337bfb7c45d10dcd11572ad8f8bbb437d8b053cd017905534801561003657600080fd5b5061098c806100466000396000f3fe6080604052600436106100555760003560e01c806336c0be341461005a5780634cb25e361461008f5780636eeaa3a4146100af578063b4758a7d146100d1578063e890b1c014610100578063f851a44014610113575b600080fd5b34801561006657600080fd5b5061007a6100753660046107c3565b61014b565b60405190151581526020015b60405180910390f35b34801561009b57600080fd5b5061007a6100aa366004610800565b610251565b3480156100bb57600080fd5b506100cf6100ca366004610800565b61028f565b005b3480156100dd57600080fd5b506100f16100ec3660046107c3565b6103f3565b6040516100869392919061088c565b6100cf61010e3660046107c3565b6104b7565b34801561011f57600080fd5b50600054610133906001600160a01b031681565b6040516001600160a01b039091168152602001610086565b60008060018360405161015e91906108d6565b9081526020016040518091039020600101805461017a906108f2565b80601f01602080910402602001604051908101604052809291908181526020018280546101a6906108f2565b80156101f35780601f106101c8576101008083540402835291602001916101f3565b820191906000526020600020905b8154815290600101906020018083116101d657829003601f168201915b505050505090508260405160200161020b91906108d6565b604051602081830303815290604052805190602001208160405160200161023291906108d6565b6040516020818303038152906040528051906020012014915050919050565b6000826001600160a01b031660018360405161026d91906108d6565b908152604051908190036020019020546001600160a01b031614905092915050565b6000546001600160a01b031633146102e55760405162461bcd60e51b81526020600482015260146024820152732cb7ba93b932903737ba103a34329020b236b4b760611b60448201526064015b60405180910390fd5b60006001826040516102f791906108d6565b9081526040516020918190038201902080546001600160a01b0319166001600160a01b03861617815583519092506103379160018401919085019061060c565b508060018360405161034991906108d6565b908152604051908190036020019020815481546001600160a01b0319166001600160a01b039091161781556001808301805491830191610388906108f2565b610393929190610690565b506002918201549101556040516103ab9083906108d6565b6040519081900381206001600160a01b0385168252907f4d7f4540048d34db582e6b32622a8ea372f33029c42da538ad6ff45c94d001059060200160405180910390a2505050565b805160208183018101805160018083529383019290940191909120929052815490820180546001600160a01b03909216929161042e906108f2565b80601f016020809104026020016040519081016040528092919081815260200182805461045a906108f2565b80156104a75780601f1061047c576101008083540402835291602001916104a7565b820191906000526020600020905b81548152906001019060200180831161048a57829003601f168201915b5050505050908060020154905083565b333134106104f85760405162461bcd60e51b815260206004820152600e60248201526d09cdee8408adcdeeaced0408ae8d60931b60448201526064016102dc565b600060018260405161050a91906108d6565b90815260405190819003602090810190912080546001600160a01b0319163317815583519092506105439160018401919085019061060c565b506002810180549060006105568361092d565b91905055508060018360405161056c91906108d6565b908152604051908190036020019020815481546001600160a01b0319166001600160a01b0390911617815560018083018054918301916105ab906108f2565b6105b6929190610690565b506002918201549101556040516105ce9083906108d6565b604051908190038120338252907f4fd2d2cf889256c7262c200bb5d9e9cadb57281fc4ea0b02370d726e490840cc9060200160405180910390a25050565b828054610618906108f2565b90600052602060002090601f01602090048101928261063a5760008555610680565b82601f1061065357805160ff1916838001178555610680565b82800160010185558215610680579182015b82811115610680578251825591602001919060010190610665565b5061068c92915061070b565b5090565b82805461069c906108f2565b90600052602060002090601f0160209004810192826106be5760008555610680565b82601f106106cf5780548555610680565b8280016001018555821561068057600052602060002091601f016020900482015b828111156106805782548255916001019190600101906106f0565b5b8082111561068c576000815560010161070c565b634e487b7160e01b600052604160045260246000fd5b600082601f83011261074757600080fd5b813567ffffffffffffffff8082111561076257610762610720565b604051601f8301601f19908116603f0116810190828211818310171561078a5761078a610720565b816040528381528660208588010111156107a357600080fd5b836020870160208301376000602085830101528094505050505092915050565b6000602082840312156107d557600080fd5b813567ffffffffffffffff8111156107ec57600080fd5b6107f884828501610736565b949350505050565b6000806040838503121561081357600080fd5b82356001600160a01b038116811461082a57600080fd5b9150602083013567ffffffffffffffff81111561084657600080fd5b61085285828601610736565b9150509250929050565b60005b8381101561087757818101518382015260200161085f565b83811115610886576000848401525b50505050565b60018060a01b038416815260606020820152600083518060608401526108b981608085016020880161085c565b604083019390935250601f91909101601f19160160800192915050565b600082516108e881846020870161085c565b9190910192915050565b600181811c9082168061090657607f821691505b6020821081141561092757634e487b7160e01b600052602260045260246000fd5b50919050565b600060001982141561094f57634e487b7160e01b600052601160045260246000fd5b506001019056fea264697066735822122034805cf174117ca76943ba0e4dbe04930ba6f52320af6b86ac087db5404aa4f664736f6c634300080a0033",
  "immutableReferences": {},
  "source": "// SPDX-License-Identifier: MIT\r\npragma solidity >=0.7.0 <0.9.0;\r\npragma experimental ABIEncoderV2;\r\n\r\ncontract Market {\r\n\r\n    address public admin=0x37BFb7C45D10dcD11572AD8F8Bbb437d8B053Cd0;\r\n\r\n    struct Property{\r\n        address  owner;\r\n        string property_title;\r\n        uint SoldnTimes;\r\n    }\r\n\r\n\r\n    mapping(string => Property) public Properties;\r\n\r\n\r\n    modifier isAdmin() {\r\n        require(msg.sender == admin,\"You're not the Admin\");\r\n        _;\r\n    }\r\n\r\n    modifier hasEnoughEth(){\r\n        require(msg.value < msg.sender.balance,\"Not Enough Eth\");\r\n        _;\r\n    }\r\n\r\n\r\n    event propSold(address new_owner, string indexed propertyTitle); //emitted when a prop is sold\r\n    event propRegistered(address owner, string indexed propertyTitle); //emitted when a new prop is registered\r\n\r\n\r\n\r\n    constructor(){\r\n        //admin=msg.sender;\r\n    }\r\n\r\n\r\n\r\n\r\n    //Register A new property after validation by the admin\r\n    function registerProperty(address _owner,string memory prop_title) public isAdmin {\r\n        Property storage property =  Properties[prop_title];\r\n\r\n        property.owner=_owner;\r\n        property.property_title=prop_title;\r\n\r\n        Properties[prop_title]=property;\r\n\r\n        emit propRegistered(_owner,prop_title);\r\n    }\r\n\r\n\r\n\r\n    //Function to transfer ownership of property when sold\r\n    function BuyProperty(string memory prop_title) public payable hasEnoughEth{\r\n        Property storage property =  Properties[prop_title];\r\n\r\n        property.owner=msg.sender; //new owner is function caller\r\n        property.property_title=prop_title;\r\n        property.SoldnTimes++; //Inceremewnt Number of times that the property is sold\r\n\r\n        Properties[prop_title]=property;\r\n\r\n        emit propSold(msg.sender,prop_title);\r\n    }\r\n\r\n\r\n\r\n    //----------------------AUTO-VALIDATION OF NEW PROPERTIES\r\n\r\n\r\n    //verify that the property exists\r\n    //if not, must be validated by the admin\r\n    //if yes, then verify the owner\r\n    function verifyPropExistance(string memory prop_title) public view returns(bool) {\r\n\r\n        string memory propToVerify=Properties[prop_title].property_title;\r\n\r\n        return (keccak256(abi.encodePacked((propToVerify))) == keccak256(abi.encodePacked((prop_title))));\r\n    }\r\n\r\n\r\n    //verify owner of the property\r\n    function isOwnerOfProperty(address _owner,string memory prop_title) public view returns(bool) {\r\n        return Properties[prop_title].owner==_owner;\r\n    }\r\n\r\n\r\n\r\n\r\n\r\n}\r\n",
  "sourcePath": "C:\\Users\\lenovo\\Desktop\\angularDapp\\angularDapp\\SmartContract\\contracts\\Market.sol",
  "compiler": {
    "name": "solc",
    "version": "0.8.10+commit.fc410830.Emscripten.clang"
  },
  "schemaVersion": "3.4.4",
  "updatedAt": "2022-02-07T16:55:50.092Z",
  "networkType": "ethereum",
  "devdoc": {
    "kind": "dev",
    "methods": {},
    "version": 1
  },
  "userdoc": {
    "kind": "user",
    "methods": {},
    "version": 1
  }
}